:100000000206A5008F828E83E0540100000070F884
:100010002278FFE4F6D8FD020703BB010689828A35
:1000200083E0225002E722BBFE02E32289828A8318
:10003000E49322BB010689828A83F0225002F722D0
:10004000BBFE01F322E88FF0A4CC8BF0A42CFCE9DA
:100050008EF0A42CFC8AF0EDA42CFCEA8EF0A4CD4A
:10006000A8F08BF0A42DCC3825F0FDE98FF0A42C5E
:10007000CD35F0FCEB8EF0A4FEA9F0EB8FF0A4CF11
:10008000C5F02ECD39FEE43CFCEAA42DCE35F0FDC2
:10009000E43CFC2275F008758200EF2FFFEE33FE82
:1000A000CD33CDCC33CCC58233C5829BED9AEC9950
:1000B000E58298400CF582EE9BFEED9AFDEC99FCF2
:1000C0000FD5F0D6E4CEFBE4CDFAE4CCF9A8822239
:1000D000B800C1B90059BA002DEC8BF084CFCECD59
:1000E000FCE5F0CBF97818EF2FFFEE33FEED33FD92
:1000F000EC33FCEB33FB10D703994004EB99FB0F77
:10010000D8E5E4F9FA227818EF2FFFEE33FEED334D
:10011000FDEC33FCC933C910D7059BE99A4007ECC5
:100120009BFCE99AF90FD8E0E4C9FAE4CCFB22750C
:10013000F010EF2FFFEE33FEED33FDCC33CCC833A0
:10014000C810D7079BEC9AE899400AED9BFDEC9A02
:10015000FCE899F80FD5F0DAE4CDFBE4CCFAE4C87A
:10016000F922EB9FF5F0EA9E42F0E99D42F0E89C0F
:1001700045F022E8600FECC313FCED13FDEE13FE17
:10018000EF13FFD8F122E8600FEFC333FFEE33FE29
:10019000ED33FDEC33FCD8F122BB010789828A8361
:1001A0000202625005E9F8020256BBFE05E9F802B8
:1001B000026E89828A8302027ABB010789828A835E
:1001C0000201D35005E9F802028ABBFE05E9F802F4
:1001D000029622ECF0A3EDF0A3EEF0A3EFF022D014
:1001E00083D082F8E4937012740193700DA3A393EB
:1001F000F8740193F5828883E4737402936860EF66
:10020000A3A3A380DFE50C2582F582E50B3583F5FA
:1002100083B50B0485820C2210AF0685820CF50B8A
:100220002285820CF50BD2AF22EC8EF0A4CCC5F067
:10023000CCCDF8EFA4CEC5F02DFDE43CFCE8A42E17
:10024000C8C5F03DFDE43CFCEFA4FFE5F028FEE46A
:100250003DFDE43CFC22E6FC08E6FD08E6FE08E67F
:10026000FF22E0FCA3E0FDA3E0FEA3E0FF22E2FC0E
:1002700008E2FD08E2FE08E2FF22E493FC74019329
:10028000FD740293FE740393FF22ECF608EDF6086A
:10029000EEF608EFF622ECF208EDF208EEF208EFC7
:1002A000F2227F947E017D007C009000E11201D358
:1002B000905120E0FFEF5480FFEFF0905122E0FFDB
:1002C000EF54F0FF9000E0EFF09000E0E0FFEF442B
:1002D0000FFF905122EFF0905123E0FFEF54F0FF19
:1002E0009000E0EFF09000E0E0FF905123EFF090FD
:1002F0005124E0FFEF54F0FF9000E0EFF09000E0B9
:10030000E0FF905124EFF0905120E0FFEF54DFFF29
:10031000EFF0905120E0FFEF4440FFEFF07F007ED0
:1003200000120C18905120E0FFEF4410FFEFF07F17
:10033000017E00120C18905121E0FF9000E0EFF0D8
:10034000905120E0FFEF54EFFFEFF07F007E0012AE
:100350000C189000E0E0FFEF5408FF9000E0EFF091
:10036000905120E0FFEF4410FFEFF07F017E00127C
:100370000C18905120E0FFEF54EFFFEFF09000E0F9
:10038000E0FFEF70077F0A7E00120C189000E1E09A
:10039000FCA3E0FDA3E0FEA3E0FF7BFF7AFF79FF73
:1003A00078FFEF2BFFEE3AFEED39FDEC38FC9000C4
:1003B000E11201D39000E0E0FFEF601A9000E1E06D
:1003C000FCA3E0FDA3E0FEA3E0FFD3EF9400EE94D6
:1003D00000400302031D905120E0FFEF54BFFFEFE8
:1003E000F0905120E0FFEF5480FFEFF0905122E0B9
:1003F000FFEF54F0FFEFF0905123E0FFEF54F0FFD8
:100400009000E0EFF09000E0E0FFEF440FFF90512C
:1004100023EFF0905124E0FFEF54F0FF9000E0EF65
:10042000F09000E0E0FFEF440FFF905124EFF02246
:100430007B007A4679E8120DB6EF4405FD7B007A21
:100440004679E8120DC2750A00E50AC394085042C5
:10045000AF0AEF75F005A42434F582E4340FF58378
:10046000AF82AE838E088F09AE08AF098F828E836C
:10047000E493FB740193FA740293F9AE08AF098F09
:10048000828E83740393FC740493FD120CBD050AE1
:1004900080B77E0D7FF6120BE97B017A507903124B
:1004A0000DB6EF4402FD7B017A507903120DC27B39
:1004B000017A507913120DB6EF4402FD7B017A5098
:1004C0007913120DC29043A0E0FFEF4440FF904328
:1004D000A0EFF09043C2E0FFEF4410FF9043C2EF63
:1004E000F07C0D7DDC7B007A5179007F0A7E001262
:1004F0000C977C0D7DE67B007A5179127F087E0097
:10050000120C977C0D7DEE7B007A5179227F087E5C
:1005100000120C979044F47401F0904322E0FFEF36
:100520004408FF904322EFF09046ECE0FFEFC394C5
:10053000055006904689743AF0904800E4F01205A0
:10054000809048007480F0120A717B007A4379A091
:10055000C003C002C0017B007A4379B090009BEBDE
:10056000F0A3EAF0A3E9F0D001D002D0037F0E7E21
:1005700000120BB59043B0E0FFEF54FDFFEFF02207
:100580007B007A4079807D337C00120D8090408220
:100590007418F09043007402F09040007408F090DA
:1005A00042007403F07B0C7A017908120DB6904674
:1005B000A1EFF07B007A4279227D087C00120D8049
:1005C0007B007A4279207D517C12120D809000D000
:1005D000E4F07F197E007D007C009000CC1201D3F6
:1005E0009000CCE0FCA3E0FDA3E0FEA3E0FFD3EF8E
:1005F0009400EE9400405F9000D0E0FFEF64036051
:1006000055904225E0FFEF5401FF7E009000D0E0BE
:10061000FEEE25E0FEEE4FFFEF5403FF9000D0EF1B
:10062000F07FE07E017D007C00120B009000CCE0AA
:10063000FCA3E0FDA3E0FEA3E0FF7BFF7AFF79FFD0
:1006400078FFEF2BFFEE3AFEED39FDEC38FC900021
:10065000CC1201D3808A9000CCE0FCA3E0FDA3E0A3
:10066000FEA3E0FFEF4E70057F03120D6E7B007A54
:100670004079047D007C01120D809040047407F0E5
:10068000904006E4F09040087448F0904004E4F094
:100690009040017402F09043A2E0FFEF4401FF900C
:1006A00043A2EFF02275930078007583467582E8C7
:1006B000E04401F0009046ECE0F99046FAE0FAB927
:1006C00003225420B40012B8001AEA901FFFF074FD
:1006D00001901FFEF09046F6F0901FFEE06005903E
:1006E0001FFFE0FA90480074C0F075810C90000084
:1006F00078007920E4F0A3D8FCD9FAEA90005EF003
:10070000020011750B1F750CFD1209DA120430027C
:10071000074D020792E493A3F8E493A34003F68005
:1007200001F208DFF48029E493A3F85407240CC8ED
:10073000C333C4540F4420C8834004F45680014698
:10074000F6DFE4800B0102040810204080900B814A
:10075000E47E019360BCA3FF543F30E509541FFEC3
:10076000E493A360010ECF54C025E060A840B8E434
:1007700093A3FAE493A3F8E493A3C8C582C8CAC5B7
:1007800083CAF0A3C8C582C8CAC583CADFE9DEE749
:1007900080BE900127E4F0900128E4F0D2AF9044AD
:1007A000F474FDF0120D5B120D1C120D3190012638
:1007B0007420F0900126E0FFEFD3947E505F90010B
:1007C00026E0FF120CD6900127E004F0900127E00C
:1007D000FF7E007E00EF540FFFEF4E700A9001285D
:1007E000E4F07F01120B4B900128E0FD04F07F0044
:1007F000120983900126E0FF120D8F7D007F011208
:100800000983900127E0FF120C457FC87E007D0020
:100810007C00120820900126E004F0809680FE22E1
:1008200090FFFC1202051201D3850B83850C82E038
:10083000FCA3E0FDA3E0FEA3E0FFD3EF9400EE9461
:1008400080403F90005FE0FCA3E0FDA3E0FEA3E05A
:10085000FF120B00850B83850C82C083C082E0FCF5
:10086000A3E0FDA3E0FEA3E0FFEF2400FFEE348051
:10087000FEED34FFFDEC34FFFCD082D0831201D3B7
:1008800080A7900055E0FCA3E0FDA3E0FEA3E0FFFD
:10089000850B83850C82E0F8A3E0F9A3E0FAA3E0DE
:1008A000FB120045120B00900004120205227F2863
:1008B0007E007D007C001208207F03120A287F053D
:1008C0007E007D007C001208207F03120A287F0F23
:1008D0007E007D007C001208207F03120A287F0121
:1008E0007E007D007C001208207F02120A287F050E
:1008F0007E007D007C001208207F06120B4B7F0ECD
:10090000120B4B7F2C120B4B7F08120B4B7F0112EB
:100910000B4B7F0C120B4B7F03120B4B7F057E00A2
:100920007D007C001208202290017BEFF090512086
:10093000E0FFEF4420FFEFF0905120E0FFEF54BFC5
:10094000FFEFF07F007E00120C18905120E0FFEFC7
:1009500054F0FFEFF0905120C083C082E0FF90017F
:100960007BE0FEEE4410FEEF4EFFD082D083EFF02E
:100970007F017E00120C18905120E0FFEF54EFFF32
:10098000EFF022900147EFF0900148EDF090014721
:10099000E0FFEF1201DF09A60009B30109C0020957
:1009A000CD03000009D9900148E0FFEF2480FF1239
:1009B0000B4B22900148E0FFEF24C0FF120B4B22AB
:1009C000900148E0FFEF2494FF120B4B2290014866
:1009D000E0FFEF24D4FF120B4B2290018BE4F09048
:1009E000018BE0FFEFD3941F503D90018BE0FF7E21
:1009F00002EF8EF0A4FFAEF0EF2400FFEE3444FED1
:100A0000AA06A9077B01C003C002C0017BFF7A0AC6
:100A100079FBAC02AD01D001D002D003120D82905F
:100A2000018BE004F080B82290017CEFF09051201F
:100A3000E0FFEF549FFFEFF0905120E0FFEF54F004
:100A4000FFEFF0905120C083C082E0FF90017CE076
:100A5000FEEE4410FEEF4EFFD082D083EFF07F0118
:100A60007E00120C18905120E0FFEF54EFFFEFF0E2
:100A7000227B0C7A0179CF120DB690016FEFF090C6
:100A8000016FE0FFEF5407FF90586EEFF090016F99
:100A9000E0FFEFC4540FFFEF540FFF90586FEFF0DB
:100AA0009058767444F022900149EFF01202A2901F
:100AB0000149E0FFEFC4540FFF90014AEFF09001AD
:100AC0004AE0FF120928900149E0FFEF540FFF9020
:100AD000014AEFF090014AE0FF12092822900153E9
:100AE000EEF0A3EFF07B027A447900900153E0FE30
:0F0AF000A3E0FFAD07AC06120D822280FE32326A
:100B0000EC4D4E700D78FCEF24E950032840FD2297
:100B1000000078C5904800E0C403035403900B47DD
:100B20009325E0240FF404FBEF28FF78FFEE38FE56
:100B3000ED38FDEC38FC50D7EF2BFFEE38FEED38EA
:100B4000FDEC38FC40F2220502030490014BEFF06B
:100B50001202A290014BE0FFEFC4540FFF90014C32
:100B6000EFF090014CE0FF120A2890014BE0FFEFFC
:100B7000540FFF90014CEFF090014CE0FF120A2857
:100B80002241016D00410144004101500041014FEB
:100B90000044005A016E360044005500005DC0411B
:100BA00000591844005F2EE00000430108000000D7
:100BB00041019A0000758600EF4E6027EF60010E3C
:100BC00075930090009BE0F595A3E0F585A3E0F513
:100BD000848B938A838982E0A30586F0A31586DF40
:100BE000F6DEF4E4F593F59522ACEAADA08E838FA2
:100BF00082E493F9601CA3E493F5EAA3E493F5A0DF
:100C0000A3E49360F1FAA3E493F8A3E493F2DAF691
:070C1000D9E48DA08CEA225B
:100C1800EEFA900059E0F88FF0A4FFAEF0E88AF001
:100C2800A42EFEE5F03400FDEF24C9FF78FFEE386E
:100C3800FEED38FDE438FC5003020B002290017DE4
:100C4800EFF090017DE0FFEFC4540FFFEF900F5CD1
:100C580093FF120D8F90017DE0FFEF540FFFEF908F
:100C68000F5C93FF120D8F22120D46900170EFF06A
:100C7800906493E0FFEF4420FFEFF0906492E0FF70
:100C8800EF4410FFEFF0900170E0FF120CEE2275B8
:100C98008600EF4E601BEF60010E8C838D828B9572
:100CA8008A858984E493A30586F0A31586DFF5DE9B
:100CB800F3E4F59522EC4D6011ED60010C8B938AFD
:100CC800838982E4F0A3DDFCDCFA759300229001AD
:100CD80074EFF0900144E0FFEF600A900174E0FFC8
:100CE800906443EFF022EF54016004D2AF8002C257
:100CF800AFEF5402FF9044F4E054FD4FF02290010E
:100D08007EEFF090017EE0FFEFC43354E0FF9044A3
:100D180080EFF022900144E0FFEF7009120D9D90E2
:100D280001447401F0120C702290014FE0FFEF7043
:100D3800091208AE90014F7401F0120DAA229044D6
:100D4800F4E0F84402F0E85402FF10AF0122740105
:100D58004FFF22120DD57E0A7FFE120ADD7F071291
:100D68000D06120DCE2290016EEFF090016EE0FF9D
:100D780090016EEFF080FE228B938A838982EDF0DA
:100D8800A3ECF07593002290017AEFF090017AE0DD
:100D9800FF120AA7229064837447F090648274015A
:100DA800F0227F0C120B4B9001507401F0228B93B0
:100DB8008A838982E0759300FF228B938A838982D4
:100DC800EDF0759300229044C07401F0229044C85D
:100DD8007401F02202000002020002000000000B71
:100DE8000B0000000000007F7F00000000000900E9
:100DF8006402820F834701024F000E0101022004A2
:100E0800401438160318381A0522202A372E0230C3
:100E18002032073440350136183A083E513F105405
:100E2800015604580459045B045F01850F86038B3F
:100E3800E08C9C8D0E8E228F01942C950F96D19864
:100E48003099319A4C9BC4A198A301A414A809A96C
:100E580031AAF0AB42AC10AD30AE80AF40B0E0B3D9
:100E68000FB41FB5F0B70FBA02BB20BF40C021C1F5
:100E780003C5EBC7C0C823C9FFCAFFCBFFCEF0CF5D
:100E880044D00CD602D710D804D904DA04DB04DF26
:100E980001E6C0EA40EB0201033300440404050103
:100EA80009200A100D200E10102013A0150217A0FB
:100EB800184419011D401E501F28201121202320ED
:100EC800270829012B0A30083120381039443F01FE
:100ED80040014120421048204B0151015302594022
:100EE8005E405F1966016808694473808201C035F5
:100EF800C266C4D7CA0DCC06CE8ED00ED6F8D8801E
:100F0800010501AF320140023310CC1001410553F5
:100F18008083109F10D420E220014202AF80EE109F
:100F28000150020001080101510100030051300085
:100F3800400051C000100051F000100100001000E6
:100F480001140008000140000A00014C00020001E1
:100F58005000002030313233343536373839414289
:040F68004344454673
:00000001FF
