:400000000010002011000000E1020000E102000080B500AF00F06EF980B500AF124B124A12688021C9020A431A60182000F014FB0D4B0D4A12680D490A401A600C4B0D4A0C
:400040001A600D4B10221A600C4B802212061A60054B00221A600A4B0A4A1A600A4B00221A60C046BD4680BD00010B40FFFFFBFF04010B40060000802002024008010B405F
:4000800000000240010000800C020B4080B582B000AF72B6FB1D00221A7022E0FB1D1A7813005B009B185B002A4A9B183B603B681A78597809020A43997809040A43DB781C
:4000C0001B06134318003B681A795B791B0213439BB2190000F0ACF8FB1D1A78FB1D01321A70FB1D1B78012BD8D91B4A1B4B1100180000F0ADF81A4BC02292001A60194BB3
:40010000EE2212021A60184B992212041A60174B8A22D2031A60164B992212041A60154A144B1B78DBB206210B43DBB21370124B04221A60114BC02252001A60104BD822AB
:4001400012011A60FFF768FF00F0C4F8C046BD4602B080BD580900007409000064090000000001400C00014000500F4008500F4030500F4000700F400000044008000440B4
:400180000803044010B5064C2378002B07D1054B002B02D0044800E000BF0123237010BD480100200000000054090000084B10B5002B03D00749084800E000BF07480368AA
:4001C000002B00D110BD064B002BFBD09847F9E7000000004C01002054090000C80000200000000080B500AF012000F0C5F900F08BF903006433180000F076F9C046BD463D
:4002000080BDC04680B500AF322000F023FB62B6054B180000F0BEF900F034F9034B180000F052F9FEE7C046E501000014FF000080B582B000AF786039603A687B68002141
:40024000180000F07FFBC046BD4602B080BDC04680B586B000AF7860396000233B6100237B612FE07B699B007A68D3181B68BB600F23FB18BA681A70BB68FF229343BB6096
:4002800018E03B695B003A68D3181B781A00BB68D31819003B695B003A68D3185B780B703B6901333B610F23FB181A780F23FB18013A1A700F23FB181B78002BE1D17B691E
:4002C00001337B617B69032BCCD9C046BD4606B080BDC04680B500AFC046BD4680BDC04680B500AF00F002FB03001B680C2B00D1FEE7FEE780B586B000AF224B7B61224B0C
:400300003B61204B7B6135E03B691B68FB603B695B68BB603B699B683B6000237B600CE0FB681A68BB681A60BB680433BB60FB680433FB607B6804337B607A683B689A4253
:40034000EED13B69DB683B6000237B6008E0BB6800221A60BB680433BB607B6804337B607A683B689A42F2D13B6910333B617B69013B7B617B69002BC6D100F0BDFAFFF747
:4003800041FFFEE701000000DC09000080B582B000AF00237B600FE07B68032B04D8104B7A689200D35800E00E4B0F4A796889008B507B6801337B607B682F2BECD9FFF787
:4003C00065FE0A4B00221A608023DB058022D205126801210A431A60C046BD4602B080BD00000000E102000000000020C000002080B500AF104B8022D2041A600E4B0E4A8D
:4004000012681A60002000F04FF80B4B0A4A12681A600A4B0C221A60012000F09FF8084B31221A60074B180000F04EF8002000F05BF8C046BD4680BD000105402401054015
:400440002801054018F6000090B583B000AFFC1D00F044FA03002370094B094A126801210A431A60FB1D1B78180000F03BFA1821012000F055F8C046BD4603B090BDC04664
:400480000000054080B500AF064B1B78002B04D1FFF7AEFF034B01221A70FFF7D5FFC046BD4680BD6401002080B582B000AF7860044B7A681204120C1A60C046BD4602B074
:4004C00080BDC0460801054080B582B000AF7860044B7A681204120C1A60C046BD4602B080BDC0461401054080B582B000AF7860044B7A681204120C1A60C046BD4602B0BE
:4005000080BDC0460C01054080B500AF034B1B681B041B0C1800BD4680BDC0460C01054090B585B000AF786039600F23FC1800F0D5F903002370084B79683A6891400A0096
:400540001A600F23FB181B78180000F0CBF9C046BD4605B090BDC0460800054080B582B000AF7860034B7A681A60C046BD4602B080BDC0463801054080B582B000AF7860FD
:40058000034B7A681A60C046BD4602B080BDC0463001054080B582B000AF786000F050F87B68180000F00AF8032000F015F800F03BF8C046BD4602B080BDC04680B582B062
:4005C00000AF7860034B80217A685A50C046BD4602B080BD0000002090B585B000AF0200FB1D1A700623FB600B23FC1800F076F9030023700B4B0B4A1268C0218A43110075
:40060000FA1D1078FA68904002000A431A600B23FB181B78180000F065F9C046BD4605B090BDC04610E400E080B500AF034B802252021A60C046BD4680BDC04600E100E052
:4006400080B500AF034B802252021A60C046BD4680BDC04680E100E090B585B000AF78600C23FC1800F03AF9030023707B68022B00D8AFE07B68302B00D9ABE05C4B1B78FB
:40068000DBB21A007B689A420AD35A4A0F23FB1812781A70584A0E23FB1812781A703FE0564B1B78DBB21A007B689A420AD3544A0F23FB1812781A70524A0E23FB18127809
:4006C0001A702DE0504B1B78DBB21A007B689A420AD34E4A0F23FB1812781A704C4A0E23FB1812781A701BE04A4B1B78DBB21A007B689A420AD3484A0F23FB1812781A70C2
:40070000464A0E23FB1812781A7009E0444A0F23FB1812781A70434A0E23FB1812781A707B68DA1E0B23FB183F498A5C1A700B23FB181B782F2B0DD97B682A2B0AD93B4B53
:4007400019221A60052000F0BFF80D23FB1819221A7007E0354B1B68DAB20D23FB183F210A401A700B23FA180D23FB1812781B789A4208D22D4B7A68033A2B498A5C1A6042
:40078000052000F0A1F82A4B7A6826498C4662441278D2B21A60274B0F22BA1812781A60254B0E22BA1812781A60052000F078F80B23FA180D23FB1812781B789A420CD9F0
:4007C0001A4B7A68033A18498A5C1A60052000F07BF802E0002000F031F80C23FB181B78180000F07FF8C046BD4605B090BDC046C0F1FF0FC1F1FF0FC2F1FF0FC3F1FF0FAA
:40080000C4F1FF0FC5F1FF0FC6F1FF0FC7F1FF0FC8F1FF0FC9F1FF0FCAF1FF0FCBF1FF0FCCF1FF0FCDF1FF0F880900002CFF0B4028FF0B401CFF0B4020FF0B4080B582B03D
:4008400000AF0200FB1D1A7001BEC046BD4602B080BDC04680B582B000AF786009E00D4B1B68180000F030F87B680B4A944663447B607A6880231B029A42F0D8074B1B68D7
:400880007A685343180000F01FF8C046BD4602B080BDC046D80000200080FFFFD000002080B582B000AF0200BB1D1A80BB1D1B88044A12785343180000F006F8C046BD46BB
:4008C00002B080BDD40000200230800804D0C0460138FDD1C046C046C0467047EFF3108072B6704780F310887047C046014B18687047C046400100200E4B70B500251E00ED
:400900000D4CE41AA410A54204D0AB00F35898470135F8E700F050F8084B00251E00084CE41AA410A54204D0AB00F35898470135F8E770BDC4090000C4090000C4090000FA
:40094000CC09000003008218934202D019700133FAE770470000000000300F40000400400F40000401330F4002400F4002410F4004430F40E2805304D4208B0497081908BB
:400980008908C608E2010000030405060708090A0B0C0E0F101112131415161718191B1C1D1E1F2021222325262728292A2B2E2F3031323334354300F8B5C046F8BC08BC97
:4009C0009E467047AD0100008D030000F8B5C046F8BC08BC9E46704785010000F0090000C80000208000000020000000000000000000000000366E01C05D00001800000077
:400A00000000E02E010000000000000000000000000000000000000000000000000000000000000000000000B60900000000000000000000000000000000000000000000E8
:400A400000000000000000000000000000000000000000000000000000000000000000000000000000000000E0000020000000000000000000000000000000000000000076
:400A80000000000000000000000000000000000000000000000000000000000000000000000000000000000000000000000000000000000000000000000000000000000036
:400AC00000000000000000000000000000000000000000000000000000000000000000000000000000000000000000000000000000000000000000000000000000000000F6
:400B000000000000000000000000000000000000000000000000000000000000000000000000000000000000000000000000000000000000000000000000000000000000B5
:400B40000000000000000000000000000000000000000000000000000000000000000000000000000000000000000000000000000000000000000000000000000000000075
:0200000490303A
:0200000073107B
:0200000490402A
:200000000000000000000000000000000000000000000000000000000000000000000000E0
:0200000490501A
:0C000000000204C81193110104CB84A37A
:0200000490600A
:0100000001FE
:00000001FF