:400000000080002011000000B9050000B905000008B5044B1A6803F53F5302331A6000F0EBFA00BFFA46004010B5054C237833B9044B13B10448AFF300800123237010BD16
:400040008881FF1F00000000C4410000084B10B51BB108490848AFF300800848036803B910BD074B002BFBD0BDE81040184700BF000000008C81FF1FC4410000C880FF1F78
:400080000000000000000000F8B52B4C25682946002001F0ABFD0646284B196801F0B0FE616801F0A5FD6060606801F035FA1CA3D3E9002301F014FD10B1214A62600CE00A
:4000C0001D4B586801F028FA17A3D3E9002301F0E9FC10B11B4A184B5A60304601F01CFA13A3D3E9002301F095FB01F02BFD0646114CA060114B5968284601F081FE074676
:400100003146284601F07CFE0146384601F070FD616801F06DFDE060F8BD00BFAFF30080CDCCCCCCCCCC1240CDCCCCCCCCCC12C07B14AE47E17A743FA481FF1FCC80FF1F5D
:4001400066669640666696C010B58EB00C460B4901F056FE01F0A4FF012C05D10246084901A802F073FC04E00246064901A802F06DFC01A800F0D4FA0EB010BD00007A4464
:40018000C8410000CC41000038B500F079FB002000F048FB00F036FC002000F005FC00F08FFE00F0A1FE002000F0A6FE00F09EFA354801F02FF862B6002500F02BFB334CA3
:4001C000606101F097F92CA3D3E9002301F0F8F92BA3D3E9002301F01DFB01F0B3FC206000F0DAFBA06101F085F923A3D3E9002301F0E6F922A3D3E9002301F00BFB01F021
:40020000A1FCE06100F090FE01F0A6FD2062204901F0F6FD4FF05E5101F0F2FD606201212068FFF791FF0121E069FFF78DFF0135A5F11F03082B03D9A5F2DD53082B08D87B
:40024000012000F0DBFA01214FF07E50FFF77CFF06E0002000F0D2FA01210020FFF774FF00210A4B586AFFF76FFF0A2000F07AFAA3E700BFAFF30080A7E8482EFF21194078
:400280007F8461C01240BF4089000000A481FF1F0000A040FEE700BFF0B40022174611E050F82760F3B226F0FF0608E001EB420511F812406D78A5550132013BDBB2002B5A
:4002C000F4D10137202FEBD9F0BC70470A4B1B78DBB203F00701094A11701B09013213700423A2F24272137002F6D31213704422034B1A70704700BFCF0100496E58004048
:400300007658004008B50A46002101F026FF08BD08B501F017FF08BD38B50024354B1C80502202331A70172202331A801823324A137019250232158002321370EF222F4936
:400340000A8002310B7002310A802D4A137004222C492D48FFF7DCFF02222C4B1A7008224FF040231A70032103F500731970284B1B78DBB227490B70274B1A8041F25122EA
:40038000023B1A800CE0254B1B7803F0010343EA440404F003044FF4F07000F049FF013D0DB1032CEFD115B90320FFF773FF1C4B4FF480721A8007221A70002219490A700A
:4003C0004820023108701A700222033B1A7004220A331A70144A137843F01F031370013A137843F001031370013A137843F08003137038BD80400040864000408C40004040
:4004000092400040B0080048004100400043004008010049A146004022420040254200400440004006400040A2430040012807D8044B53F820201844017A13780B4313709E
:40044000704700BFD0410000012808D8044B53F820201844017A137823EA010313707047D041000038B572B63D4A137843F00403137000240BE03B4863001A1951000144B2
:400480000A46098AD068FFF73DFF0134E4B20A2CF1D900240BE03349A3001819420088188022416D006DFFF733FF0134E4B2002CF1D02D494FF09040FFF7EEFE0A222B4B3D
:4004C0001A702B4903F52F43D5331960294903F5C063196028490B7843F002030B7010310B7843F002030B70244C237843F040032370A1F5863151390B7843F010030B70C0
:400500001F492048FFF704FF08221F491F48FFF7FFFE08221E491F48FFF7FAFE08221E491E48FFF7F5FE08221D491E48FFF7F0FE1D4A137843F0080313701C4D61232B702B
:40054000FFF7EAFE81232B700122194B1A70FFF7BDFE0E2221461748FFF7DAFE38BD00BFE8460040D04100008400004883580040040400440404048403500140A04300402B
:40058000840800480051004090080048125100409808004822510040A008004832510040A808004852510040224300400048004004000840B043004008B501F097FD0368D1
:4005C0000C2B00D1FEE7FEE708B5094B1A681044084BC31A802B02DC054B186005E001F085FD0C2303604FF0FF32104608BD00BFD480FF1FF081FF1F08B5104E104D16E01E
:4006000029686B68AC68002204E051F8040B43F8040B0432A242F8D1E868002203E0002143F8041B04328242F9D11035013E002EE6D101F061FDFFF7A7FDFEE701000000EB
:40064000B043000008B5104A104B1A60104A136843F40073136000230AE0032B03D80D4A52F8231000E00C490C4A42F8231001332F2BF2D90A4B1A780A4B1A70074A0A4B02
:400680001A60FFF7EFFE08BD0004FA050CED00E014ED00E000000000B90500000080FF1FBC760040C080FF1F08ED00E00622054B1A70472210331A70002203F251131A701D
:4006C000704700BF2964004010B500F0B9FD0446054A137843F01003137000F033F8204600F0B2FD10BD00BF9A65004008B5054B1B7823B9FFF7DAFF0122024B1A70FFF739
:40070000E3FF08BDCC81FF1F034B1B7813F0040FFAD1024B187070476A6500404A65004038B5074B1B782BB938BDFFF7EDFF0134A4B201E005460024285D0028F5D138BD8B
:40074000CC81FF1F054A137843F0040313701032137843F004031370704700BFA243004001BE704710B5044605E0084B186800F05FFDA4F50044B4F5004FF6D8034B586818
:4007800000FB04F000F054FD10BD00BFD880FF1F08B5034B1B7A00FB03F000F049FD08BDD880FF1F70B504460E46074B1D681F2802D90020FFF7D4FF04F01F04103455F8BB
:4007C000240045F8246070BD08ED00E038B504460D46072902D90020FFF7C2FF1F2C02D90020FFF7BDFF04F01F0000F1604000F564406D01EDB2057038BD00BF044A137862
:4008000003F0FB03800000F004001843107070473051004008B500F05FF8A0F5004000B208BD00BF08B5002803DB80B280F4004002E0A0F5004080B200F048F808BD00BFAB
:40084000024B187800F00F00704700BF6F640040014B1870704700BF8F64004008B50F20FFF7F6FFFFF7ECFF00F0EAFC034A137843F01003137000F0E7FC08BD9F6400408C
:4008800008B500F07BF84FF4004000F01FF8044B1B7813B90122024B1A70FFF7DFFF08BDCE81FF1F024A137843F08003137070477E640040014B1870704700BF8E6400407B
:4008C000014B1878704700BF6E640040014B1880704700BF1A680040024B1B78024B188880B270470D6400409A680040014B188880B270479A680040014B1880704700BF5E
:400900005A680040014B1880704700BF7A68004008B501E0FFF7EAFFFFF7D2FF10F0400FF8D108BD08B5134B1A7802F0F8021A701A7802F0FC021A70FFF7EAFF4FF4004087
:40094000FFF7DAFF4FF40040FFF7C0FF0020FFF7B1FFFFF7B5FF4FF40040FFF7D3FF00F06FFC054A137843F01003137000F06CFC08BD00BF7E6400409E64004008B5054B6A
:400980001B7823B9FFF7CEFF0122024B1A70FFF789FF08BDCF81FF1F08B500F05FF8A0F5004000B208BD00BF08B5002803DB80B280F4004002E0A0F5004080B200F048F889
:4009C00008BD00BF024B187800F00F00704700BF69640040014B1870704700BF8964004008B50F20FFF7F6FFFFF7ECFF00F028FC034A137843F01003137000F025FC08BD5A
:400A00009964004008B500F07BF84FF4004000F01FF8044B1B7813B90122024B1A70FFF7DFFF08BDD081FF1F024A137843F08003137070477B640040014B1870704700BFEF
:400A400088640040014B1878704700BF68640040014B1880704700BF14680040024B1B78024B188880B270470A64004094680040014B188880B2704794680040014B188041
:400A8000704700BF54680040014B1880704700BF7468004008B501E0FFF7EAFFFFF7D2FF10F0400FF8D108BD08B5134B1A7802F0F8021A701A7802F0FC021A70FFF7EAFF1F
:400AC0004FF40040FFF7DAFF4FF40040FFF7C0FF0020FFF7B1FFFFF7B5FF4FF40040FFF7D3FF00F0ADFB054A137843F01003137000F0AAFB08BD00BF7B6400409864004002
:400B000008B5054B1B7823B9FFF7CEFF0122024B1A70FFF789FF08BDD181FF1F10B59DF80840012C51D1013809282ED8DFE800F0052D2D052D2D0F192D230F2B03D92548F8
:400B4000007840B222E02448007840B21EE00F2B03D92248007840B218E02148007840B214E00F2B03D91F48007840B20EE01E48007840B20AE00F2B03D91C48007840B219
:400B800004E01B48007840B200E0002001EB401101FB02F1C90B8AB20D2B0BD8C3F10E0289B211418AB2611E124800EB810101338B7005E0631E0F4901EB83030F219970C2
:400BC000013C0C4B23F8242010BD0020FFF7C8FD10BD00BF180100491C010049190100491D0100491A0100491E0100491B0100491F010049D481FF1FF8B5074600F020FB2A
:400C000006460D4D2B7843F003032B700B4C237843F0030323700A4B1F700320FFF7B8FD2B7803F0FC032B70237803F0FC032370304600F009FBF8BDF8460040F9460040BB
:400C4000925800400022324B1A7101285FD170B53822304B1A70042202331A70062201331A70002401331C7001331C703F2201331A7002331C7001331C7001331C7001254E
:400C80000A331D70502203F527631A700A2201331A702C2201331A7001331C70442203331A70482201331A7001331D7002331D70112201331A70192201331A70972201338E
:400CC0001A705220FFF798FF5822134B1A7001331C70052605331E70022201331A7001331C7001331C70204600F066F943F233320A4B1A602946304600F082F929462520D4
:400D000000F002FA06491D20FFF74CFD70BD7047D481FF1F004E004094580040E881FF1F950F0000F0B583B0284D01272F70284E00247471102000F051F9102000F0D2F9D8
:400D400007211D20FFF742FD0422224B1A7001331C7007331C70204A137843F0180313701E4B1C7003F2F5231C7001331C700A22A3F209331A7001331C7002331C705B229D
:400D800005331A705E2201331A7004331C701422A3F68C231A70009710234FF4004248F6F0510220FFF7BAFE2B78013B06EB83039A780B4B1A702B78013B36F82320094BDE
:400DC0001A802878FFF73EFF03B0F0BDE880FF1FD481FF1F96580040075B0040935800400E4E00400C4E004070B500F029FA06462A4B1B782A4B1A7842F001021A701A7818
:400E000042F010021A7010331A7842F001021A701A7842F010021A70224D2B7843F002032B70214C237843F0020323701F4A137843F0030313700320FFF7AAFC2B7803F033
:400E4000FD032B70237803F0FD032370184A137843F0060313707A22164B1A70164A137843F0010313701032137843F0010313700F3A137843F0010313701032137843F0C9
:400E8000010313704FF000530C4A1360A2F5C0721360304600F0D8F970BD00BFE880FF1FAA430040F8460040F9460040915800407758004082580040A143004080E200E089
:400EC00008B5084B9B794BB9064BDB7913F0FF0F01D1FFF727FF0122024B9A71FFF784FF08BD00BFD481FF1F024A137843F0010313707047004E0040094B1B7913F0FF0F6C
:400F000003D0074B5B79DBB203E0064B1B7803F00103012B01D00028EED01846704700BFD481FF1F014E0040154B1B7803F00303012B07D8134B1888023B1B889BB243EA65
:400F4000004013E0022B0AD10E4B1888023B1B7843EA00430C4A107843EA002006E00B4B188883B2074A108843EA0040084B1B7913F0FF0F02D00022054B5A71704700BFEE
:400F8000144E0040124E0040114E0040104E0040D481FF1F704700BF10B5002404E02046FFF752FA0134E4B2012CF8D9FF22014B1A7010BDE980FF1F10B50446FFF7ECFF50
:400FC0002046FFF733FA014B1C7010BDE980FF1F014B188880B2704780400040034B1A7800F0F80010431870704700BF82400040024B187800F00700704700BF8240004000
:4010000070B505460E46FFF7F3FF0446FFF7E0FFA84256D02B4B1B7803F0010294B900B185B938B9284B1D80284A137803F0BF03137070BD254A137843F040031370224BD7
:401040001D8070BD22B3002321490B7001240F310C7004310B700C390B7803F07F030B701A4B1B7813F0080F00D08DB9194B18800721013B1970164B1B7813F0010FFAD19D
:4010800010490B7803F0FE030B700021104B19700C4B1B7813F0010F0DD00E4B1D800EB1032200E001220A4B1A70094B1B7813F0010FFAD170BD044B1D8002490B78134348
:4010C0000B7070BDA243004080400040824000400140004002400040014B188880B2704700410040034B1A7800F0F80010431870704700BF02410040024B187800F0070058
:40110000704700BF0241004070B505460E46FFF7F3FF0446FFF7E0FFA84256D02B4B1B7803F0010294B900B185B938B9284B1D80284A137803F0BF03137070BD254A137843
:4011400043F040031370224B1D8070BD22B3002321490B70012413310C7004390B7008390B7803F07F030B701A4B1B7813F0080F00D08DB9194B18800721013B1970164B9F
:401180001B7813F0010FFAD110490B7803F0FE030B700021104B19700C4B1B7813F0010F0DD00E4B1D800EB1032200E001220A4B1A70094B1B7813F0010FFAD170BD044B97
:4011C0001D8002490B7813430B7070BDA143004000410040024100400140004002400040014B1B681864704708ED00E04001C0B2014B1870704700BF00E400E00122014B54
:401200001A60704700E100E00122014B1A60704780E100E010B50446FFF7F6FF2046FFF7DFFF0720FFF7E2FFFFF7E8FF10BD00BF0230800803D000BF01380046FCD17047F1
:40124000EFF3108072B6704780F31088704700BF81F0004102E000BF83F0004330B54FEA41044FEA430594EA050F08BF90EA020F1FBF54EA000C55EA020C7FEA645C7FEAC4
:40128000655C00F0E2804FEA5454D4EB5555B8BF6D420CDD2C4480EA020281EA030382EA000083EA010180EA020281EA0303362D88BF30BD11F0004F4FEA01314FF4801C88
:4012C0004CEA113102D0404261EB410113F0004F4FEA03334CEA133302D0524263EB430394EA050F00F0A780A4F10104D5F1200E0DDB02FA0EFC22FA05F2801841F100015A
:4013000003FA0EF2801843FA05F359410EE0A5F120050EF1200E012A03FA0EFC28BF4CF0020C43FA05F3C01851EBE37101F0004507D54FF0000EDCF1000C7EEB00006EEB79
:401340000101B1F5801F1BD3B1F5001F0CD349085FEA30004FEA3C0C04F101044FEA445212F5800F80F09A80BCF1004F08BF5FEA500C50F1000041EB045141EA050130BD18
:401380005FEA4C0C404141EB010111F4801FA4F10104E9D191F0000F04BF01460020B1FA81F308BF2033A3F10B03B3F120020CDA0C3208DD02F1140CC2F10C0201FA0CF0B6
:4013C00021FA02F10CE002F11402D8BFC2F1200C01FA02F120FA0CFCDCBF41EA0C019040E41AA2BF01EB0451294330BD6FEA04041F3C1CDA0C340EDC04F11404C4F1200208
:4014000020FA04F001FA02F340EA030021FA04F345EA030130BDC4F10C04C4F1200220FA02F001FA04F340EA0300294630BD21FA04F0294630BD94F0000F83F4801306BF5F
:4014400081F480110134013D4EE77FEA645C18BF7FEA655C29D094EA050F08BF90EA020F05D054EA000C04BF1946104630BD91EA030F1EBF0021002030BD5FEA545C05D1CC
:401480004000494128BF41F0004130BD14F580043CBF01F5801130BD01F0004545F0FE4141F470014FF0000030BD7FEA645C1ABF194610467FEA655C1CBF0B46024650EA15
:4014C000013406BF52EA033591EA030F41F4002130BD00BF90F0000F04BF0021704730B54FF4806404F132044FF000054FF0000150E700BF90F0000F04BF0021704730B505
:401500004FF4806404F1320410F0004548BF40424FF000013EE700BF42004FEAE2014FEA31014FEA02701FBF12F07F4393F07F4F81F06051704792F0000F14BF93F07F4F72
:40154000704730B54FF4607401F0004521F0004120E700BF50EA010208BF704730B54FF000050AE050EA010208BF704730B511F0004502D5404261EB41014FF4806404F1B3
:4015800032045FEA915C3FF4DCAE4FF003025FEADC0C18BF03325FEADC0C18BF033202EBDC02C2F1200300FA03FC20FA02F001FA03FE40EA0E0021FA02F11444C1E600BF9E
:4015C00070B54FF0FF0C4CF4E06C1CEA11541DBF1CEA135594EA0C0F95EA0C0F00F0DEF82C4481EA030621EA4C5123EA4C5350EA013518BF52EA033541F4801143F48013BF
:4016000038D0A0FB02CE4FF00005E1FB02E506F00042E0FB03E54FF00006E1FB03569CF0000F18BF4EF0010EA4F1FF04B6F5007F64F5407404D25FEA4E0E6D4146EB0606C7
:4016400042EAC62141EA55514FEAC52040EA5E504FEACE2EB4F1FD0C88BFBCF5E06F1ED8BEF1004F08BF5FEA500E50F1000041EB045170BD06F0004646EA010140EA02007B
:4016800081EA0301B4EB5C04C2BFD4EB0C0541EA045170BD41F480114FF0000E013C00F3AB8014F1360FDEBF002001F0004170BDC4F10004203C35DA0C341BDC04F1140482
:4016C000C4F1200500FA05F320FA04F001FA05F240EA020001F0004221F0004110EBD37021FA04F642EB06015EEA430E08BF20EAD37070BDC4F10C04C4F1200500FA04F37C
:4017000020FA05F001FA04F240EA020001F0004110EBD37041F100015EEA430E08BF20EAD37070BDC4F1200500FA05F24EEA020E20FA04F301FA05F243EA020321FA04F0A9
:4017400001F0004121FA04F220EA020000EBD3705EEA430E08BF20EAD37070BD94F0000F0FD101F00046400041EB010111F4801F08BF013CF7D041EA060195F0000F18BFEE
:40178000704703F00046520043EB030313F4801F08BF013DF7D043EA0603704794EA0C0F0CEA135518BF95EA0C0F0CD050EA410618BF52EA4306D1D181EA030101F00041F0
:4017C0004FF0000070BD50EA410606BF1046194652EA430619D094EA0C0F02D150EA013613D195EA0C0F05D152EA03361CBF104619460AD181EA030101F0004141F0FE41F2
:4018000041F470014FF0000070BD41F0FE4141F4780170BD70B54FF0FF0C4CF4E06C1CEA11541DBF1CEA135594EA0C0F95EA0C0F00F0A7F8A4EB050481EA030E52EA033551
:401840004FEA013100F088804FEA03334FF0805545EA131343EA12634FEA022245EA111545EA10654FEA00260EF000419D4208BF964244F1FD0404F5407402D25B084FEAC6
:401880003202B61A65EB03055B084FEA32024FF480104FF4002CB6EB020E75EB030E22BFB61A754640EA0C005B084FEA3202B6EB020E75EB030E22BFB61A754640EA5C0012
:4018C0005B084FEA3202B6EB020E75EB030E22BFB61A754640EA9C005B084FEA3202B6EB020E75EB030E22BFB61A754640EADC0055EA060E18D04FEA051545EA16754FEADF
:4019000006164FEAC30343EA52734FEAC2025FEA1C1CC0D111F4801F0BD141EA00014FF000004FF0004CB6E711F4801F04BF01430020B4F1FD0C88BFBCF5E06F3FF6AFAE26
:40194000B5EB030C04BFB6EB020C5FEA500C50F1000041EB045170BD0EF0004E4EEA113114EB5C04C2BFD4EB0C0541EA045170BD41F480114FF0000E013C90E645EA060E86
:401980008DE60CEA135594EA0C0F08BF95EA0C0F3FF43BAF94EA0C0F0AD150EA01347FF434AF95EA0C0F7FF425AF104619462CE795EA0C0F06D152EA03353FF4FDAE104644
:4019C000194622E750EA410618BF52EA43067FF4C5AE50EA41047FF40DAF52EA43057FF4EBAE12E74FF0FF3C06E000BF4FF0010C02E000BF4FF0010C4DF804CD4FEA410C91
:401A00007FEA6C5C4FEA430C18BF7FEA6C5C1BD001B050EA410C0CBF52EA430C91EA030F02BF90EA020F0020704710F1000F91EA030F58BF994208BF90422CBFD8176FEA61
:401A4000E37040F0010070474FEA410C7FEA6C5C02D150EA013C07D14FEA430C7FEA6C5CD6D152EA033CD3D05DF8040B704700BF8446104662468C461946634600E000BFB9
:401A800001B5FFF7B7FF002848BF10F1000F01BD4DF808EDFFF7F4FF0CBF012000205DF808FB00BF4DF808EDFFF7EAFF34BF012000205DF808FB00BF4DF808EDFFF7E0FF0E
:401AC00094BF012000205DF808FB00BF4DF808EDFFF7CEFF94BF012000205DF808FB00BF4DF808EDFFF7C4FF34BF012000205DF808FB00BF4FEA410212F5001215D211D5F3
:401B00006FF47873B3EB625212D94FEAC12343F0004343EA505311F0004F23FA02F018BF404270474FF00000704750EA013005D111F0004008BF6FF0004070474FF0000074
:401B4000704700BF4FEA4102B2F1E04324BFB3F5001CDCF1FE5C0DD901F0004C4FEAC0024CEA5070B2F1004F40EB830008BF20F00100704711F0804F21D113F13872BCBFB1
:401B800001F00040704741F480114FEA5252C2F11802C2F1200C10FA0CF320FA02F018BF40F001004FEAC1234FEAD32303FA0CFC40EA0C0023FA02F34FEA4303CCE77FEA9D
:401BC000625307D150EA01331EBF4FF0FE4040F44000704701F0004040F0FE4040F40000704700BF80F0004002E000BF81F0004142001FBF5FEA410392EA030F7FEA226CE7
:401C00007FEA236C6AD04FEA1262D2EB1363C1BFD218414048404140B8BF5B42192B88BF704710F0004F40F4000020F07F4018BF404211F0004F41F4000121F07F4118BF6F
:401C4000494292EA030F3FD0A2F1010241FA03FC10EB0C00C3F1200301FA03F100F0004302D5494260EB4000B0F5000F13D3B0F1807F06D340084FEA310102F10102FE2A9B
:401C800051D2B1F1004F40EBC25008BF20F0010040EA03007047490040EB000010F4000FA2F10102EDD1B0FA80FCACF1080CB2EB0C0200FA0CF0AABF00EBC250524218436F
:401CC000BCBFD0401843704792F0000F81F4000106BF80F400000132013BB5E74FEA41037FEA226C18BF7FEA236C21D092EA030F04D092F0000F08BF0846704790EA010F7F
:401D00001CBF0020704712F07F4F04D1400028BF40F00040704712F100723CBF00F50000704700F0004343F0FE4040F4000070477FEA226216BF08467FEA236301464202C9
:401D400006BF5FEA412390EA010F40F4800070474FF0000304E000BF10F0004348BF40425FEA000C08BF704743F0964301464FF000001CE050EA010208BF70474FF00003ED
:401D80000AE000BF50EA010208BF704711F0004302D5404261EB41015FEA010C02BF84460146002043F0B64308BFA3F18053A3F50003BCFA8CF2083AA3EBC25310DB01FA58
:401DC00002FC634400FA02FCC2F12002BCF1004F20FA02F243EB020008BF20F00100704702F1200201FA02FCC2F1200250EA4C0021FA02F243EB020008BF20EADC7070472C
:401E00004FF0FF0C1CEAD0521EBF1CEAD15392EA0C0F93EA0C0F6FD01A4480EA010C400218BF5FEA41211ED04FF0006343EA501043EA5111A0FB01310CF00040B1F5000FB8
:401E40003EBF490041EAD3715B0040EA010062F17F02FD2A1DD8B3F1004F40EBC25008BF20F00100704790F0000F0CF0004C08BF49024CEA502040EA51207F3AC2BFD2F151
:401E8000FF0340EAC250704740F400004FF00003013A5DDC12F1190FDCBF00F000407047C2F10002410021FA02F1C2F1200200FA02FC5FEA310040F1000053EA4C0308BFC7
:401EC00020EADC70704792F0000F00F0004C02BF400010F4000F013AF9D040EA0C0093F0000F01F0004C02BF490011F4000F013BF9D041EA0C018FE70CEAD15392EA0C0F69
:401F000018BF93EA0C0F0AD030F0004C18BF31F0004CD8D180EA010000F00040704790F0000F17BF90F0004F084691F0000F91F0004F14D092EA0C0F01D142020FD193EADD
:401F40000C0F03D14B0218BF084608D180EA010000F0004040F0FE4040F40000704740F0FE4040F4400070474FF0FF0C1CEAD0521EBF1CEAD15392EA0C0F93EA0C0F69D0B9
:401F8000A2EB030280EA010C49024FEA402037D04FF0805343EA111143EA10130CF000408B4238BF5B0042F17D024FF4000C8B4224BF5B1A40EA0C00B3EB510F24BFA3EB56
:401FC000510340EA5C00B3EB910F24BFA3EB910340EA9C00B3EBD10F24BFA3EBD10340EADC001B0118BF5FEA1C1CE0D1FD2A3FF650AF8B4240EBC25008BF20F0010070471C
:402000000CF0004C4CEA50207F32C2BFD2F1FF0340EAC250704740F400004FF00003013A37E792F0000F00F0004C02BF400010F4000F013AF9D040EA0C0093F0000F01F05B
:40204000004C02BF490011F4000F013BF9D041EA0C0195E70CEAD15392EA0C0F08D142027FF47DAF93EA0C0F7FF470AF084676E793EA0C0F04D14B023FF44CAF08466EE770
:4020800030F0004C18BF31F0004CCAD130F000427FF45CAF31F000437FF43CAF5FE700BF4FEA4002B2F1FE4F0FD34FF09E03B3EB12620DD94FEA002343F0004310F0004FE8
:4020C00023FA02F018BF404270474FF00000704712F1610F01D1420205D110F0004008BF6FF0004070474FF000007047014B1868704700BF4C81FF1F0E4B70B51E460E4CB0
:402100000025E41AA410A54204D056F8253098470135F8E702F03AF9084B094C1E46E41AA4100025A54204D056F8253098470135F8E770BD9843000098430000984300005E
:40214000A043000010B5431E0A44914204D011F8014B03F8014FF8E710BD03460244934202D003F8011BFAE770472DE9F04788B0149F002B1E461299B8BF03F1004327F0F9
:402180002007B6BF1E4600232D23462F1446109DDDF84CA00B7003D0452F03D1013501E0032300E0022307AA049206AA03928DE828042246334600F003FD472F804602D18A
:4021C000119BDB0728D5462F08EB050911D198F80030302B0AD10022002320463146FFF757FC18B9C5F10105CAF80050DAF8003099440022002320463146FFF749FC08B9FF
:40220000302202E0CDF81C9006E0079B994503D9591C07911A70F8E74046079B159AC8EB0303136008B0BDE8F087034673B50029B8BF494203F8022BB4BF2D222B22092965
:4022400042701ADD0DF1070216460A2591FBF5F405FB1411092C01F1300102F8011D2146F4DC3031541E02F8011CB4421A460AD214F8012B03F8012BF7E71A463024214470
:4022800002F8024B5970101A02B070BD2DE9F04F91B00C46DDF8688016461F46054601F027FA03681846099300F0F4FB00230E93D8F800300A90073323F0070303F108024B
:4022C00094F81890D4F800B0C8F80020D3E90023C4E91223D4F84CA0D4F848802AF000430B934FF0FF32A74B40460B9901F054FFA0B94FF0FF32A34B40460B99FFF7DCFBC8
:4023000060B90022002340465146FFF7CBFB10B12D2384F843309C4B9C4A0AE0424653464046514601F038FF002800F09281984B984AB9F1470F8CBF9046984603232361B0
:402340002BF0040323604FF0000A3DE0B9F1670F00F08A81B9F1470F00F0868123600193636800210DF13302059002920093424653460691CDF81090CDF80CE02846FFF71C
:40238000F4FE09F0DF03472B804600F08481B9F1650F0D9900F28D8101394A4604F150000D91FFF742FF0E9A82468318012A236100F37C812268D10700F178819DF833308D
:4023C00013B12D2384F84330009733460FAA2146284600F09FF9013002D14FF0FF3096E123685A0501D4236965E0B9F1650F40F2D580D4E9120100220023FFF749FB78B31C
:402400000123654A31462846B8470130E5D00E9B0D9A9A420BDB2368D80708D423689B0740F111814FF0000804F1190906E10A9B099A31462846B8470130CED04FF0000830
:4024400004F11A090E9B013B9845E7DA01234A4631462846B8470130BFD008F10108F1E70D9B002B29DC01234B4A31462846B8470130B2D00D9B23B90E9B13B92368D90703
:40248000CCD50A9B099A31462846B8470130A4D04FF0000904F11A0A0D9B5B42994509DA0123524631462846B847013095D009F10109F1E70E9B4246A7E00E9AA36D9A42E5
:4024C000A8BF1A46002A914606DC4FF0000A29EAE97904F11A0B11E01346314642462846B8470130F1D178E701235A4631462846B84701303FF471AF0AF1010AA36DC9EB5C
:4025000003029245F0DB08EB03090D9A0E9B9A420FDB2368DA070CD40E9B0D9A9844C9EB08089B1A9845A8BF9846B8F1000F08DC0FE00A9B099A31462846B8470130EBD128
:402540004BE743464A4631462846B84701303FF444AF4FF0000928EAE87804F11A0A09E00123524631462846B84701303FF435AF09F101090D9A0E9B9B1AC8EB0303994591
:40258000EEDB4BE7FFFFEF7F2C4200003042000034420000384200003C4200000E9A012A01DCDB0738D50123424631462846B84701303FF412AF0A9B099A31462846B847E6
:4025C00001303FF40AAFD4E9120100220023FFF75FFA20B14FF0000804F11A090EE00E9B08F10102013B19E001234A4631462846B84701303FF4F1AE08F101080E9B013BE0
:402600009845F1DB534604F1500231462846B84701307FF403AFE0E64246012331462846B8470130EED1D8E601234A4631462846B84701303FF4D1AE08F10108E3680F9A62
:402640009B1A9845F0DBE0680F9B9842B8BF18465DE062680EA8531C0DF1340E4BF480637FF474AE062201E012B90122626075E6002106910DF133018DE80C0023600590A2
:402680004246CDF81090CDF80CE0029153462846FFF76BFD80460D9BD81C02DB626893421DDDA9F102095FFA89F970E60133236184E6B9F1660F14D10029636807DD216156
:4026C00013B92268D2071DD501330B4419E013B92268D00701D5023313E0012311E04FF067090D9B0E9A934205DB22682361D10708D5013305E0002BD4BFC3F102030123D2
:40270000134423610D9B4FF0000AA36556E611B0BDE8F08F2DE9F04791461F460A698B6806469342B8BF1346C9F8003091F843200C46DDF8208012B10133C9F800302368AD
:40274000990642BFD9F800300233C9F80030256815F0060510D104F1190A07E00123524639463046C04701301AD00135E368D9F800209B1A9D42F1DB94F8433022680033B4
:4027800018BF012392060FD5E118302081F843005A1C94F845102244023382F8431003E04FF0FF30BDE8F08704F1430239463046C0470130F4D02268D9F80050E36802F05E
:4027C0000602042A08BF5D1B2269A3680CBF25EAE57500259342C4BF9B1AED184FF000091A344D4509D00123224639463046C0470130D5D009F10109F3E70020BDE8F087EA
:402800002DE9F04317460A7E85B06E2A984606460C460C9B01F1430E00F0AE8011D8632A22D009D8002A00F0BB80582A40F0CA8081F84520834955E0642A1ED0692A1CD0A5
:40284000C0E0732A00F0B08009D86F2A2ED0702A40F0B8800A6842F020020A603EE0752A24D0782A3AD0ADE01A6801F14205111D1960136884F84230A8E021681A6811F008
:40288000800F02D0111D196008E011F0400F02F10401196002D0B2F9003000E01368002B3CDA2D225B4284F8432037E021681A6811F0800F02D0111D196007E011F0400FF1
:4028C00002F10401196001D0138800E01368227E5C496F2A14BF0A2208221BE078225A4984F845202268186812F0800F00F104051D6003D1550601D5038800E00368D007BC
:4029000044BF42F0200222601BB9226822F0200222601022002084F8430001E049490A226568002DA56008DB206820F0040020602BB9002D7DD175460CE0002B79D07546C7
:40294000B3FBF2F002FB1033CB5C05F8013D03460028F5D1082A0BD12368DA0708D5236962689A42DEBF302305F8013C05F1FF35C5EB0E0323612EE008681A6810F0800F3D
:40298000496903D0101D1860136808E010F0400F02F104001860136801D0198000E0196000232361754616E01A68111D1960156800216268284600F0A7FE08B1401B6060CE
:4029C000636804E004F1420584F8422001232361002384F84330CDF800803B4603AA21463046FFF797FE013002D14FF0FF3026E023692A4639463046C0470130F5D0236888
:402A00009B0710D5002504F1190907E001234A4639463046C0470130E7D00135E368039A9B1A9D42F2DBE068039B9842B8BF184605E00B7804F1420584F842308AE705B088
:402A4000BDE8F0833E4200004F4200000EB400B54FF402719CB0ADF814106FF00041049107914FF6FF711DAB02900690084853F8042BADF81610006802A9019301F03AFA18
:402A8000029B00221A701CB05DF804EB03B070474C81FF1F034613F8012B002AFBD1181A013870472DE9F74F03690C6980469C427FDC013C01F114074FEA840E00F1140674
:402AC00006EB0E0357F82450019356F824300135B3FBF5F507EB0E09C5B34FF0000A3846B446D34650F8043B9AB205FB02A21B0C4FEA124A05FB03A392B2C2EB0B0BBCF81E
:402B000000204FEA134A5A441FFA83FBDCF800308145CBEB134303EB224392B242EA03424FEA234B4CF8042BDCD256F80E306BB9019B043B9E421A4602D3C8F8104005E06F
:402B40001268043B002AF8D1013CF3E7404600F0F6FF00282BDB304601354FF0000E57F8042B036891B2C1EB0E0E120C99B27144C2EB134303EB214389B24FEA234EB945B6
:402B800041EA034340F8043BE9D256F8242006EB840362B9043B9E421A4602D3C8F8104005E01268043B002AF8D1013CF3E7284600E0002003B0BDE8F08F000000000000FC
:402BC0002DE9F04F456A95B08246219CCDE9022345B9102000F090FDCAF82400456085600560C560DAF82430196859B15A68012393404A608B60504600F0C9FDDAF8243016
:402C000000221A60039BA04A002BBDBF01232360039B0023BCBF23F000430393DDF80C80A8BF236028F000431B0D1B0593421DD142F20F73209A1360029B43B9934A944B11
:402C4000C8F31300002814BF1846104600E09048229B002B00F04685C37813B100F1080300E0C31C229A136000F03CBDDDE902450022002320462946FEF70AFF074658B12F
:402C8000209A01231360229B002B00F01E8581481860013800F026BD12AB019313AB009322462B46504600F0C5FFC8F30A56049056B1C5F3130343F07F51204641F44011C3
:402CC000A6F2FF3611971DE0139B129E1E4406F23243202B0ADD029A06F21240C3F1400322FA00F008FA03F3184304E0C3F12000029B03FA00F0FEF7EDFB0123A1F1F87189
:402D0000013E11930022644BFEF7A6FA58A3D3E90023FEF755FC58A3D3E90023FEF79EFA044630460D46FEF7E5FB55A3D3E90023FEF746FC02460B4620462946FEF78EFAE2
:402D400004460D46FEF7D6FE00228346002320462946FEF7A7FE58B15846FEF7CBFB02460B4620462946FEF793FE08B90BF1FF3BBBF1160F0DD8DDE90223484901EBCB0139
:402D8000D1E90001FEF7ACFE30B10BF1FF3B002300E00123109300E01090129B9E1B731E079343BFC3F10008002307934FF00008BBF1000F06DB079BCDF82CB05B440793ED
:402DC000002705E00023CBEB0808CBF100070B931E9B092B28D8052BC4BF043B1E931E9BC8BF0025A3F10203D8BF0125032B20D8DFE803F0060E0204012302E0012308E026
:402E000000230A931F9B002B1DDD9946059321E000230A931F9B0BEB030909F10103012B0593B8BF012315E0012500231E930A9501E001230A934FF0FF390022CDF8149070
:402E400012231F9206E04FF001094B46CDF81490CDF87C90DAF8244000226260042101F114029A421CD86268490001326260F6E761436F63A787D23FB3C8608B288AC63FA4
:402E8000FB799F501344D33F0000F07F60420000694200003D4200000000F83F784200006168504600F03EFCDAF8243020601B680693059B0E2B00F25B81002D00F0588132
:402EC000DDE90234BBF1000FCDE90E3430DD9F4A0BF00F034FEA2B1502EBC303E80618CBCDE908340CD5DDE90E01994B05F00F05D3E90823FEF78EFC0324CDE9020100E068
:402F00000224934E6DB1E90708D5DDE90801D6E90023FEF755FBCDE9080101346D100836F0E7DDE90823DDE90201FEF773FC20E0CBF1000505B3DDE90E01844B05F00F02E2
:402F400003EBC203D3E90023FEF73AFBCDE902017F4E2D110023022455B1EA0705D5D6E90023FEF72DFB013401236D100836F3E71BB1CDE9020100E00224109BE3B1DDE93A
:402F800002560022734B28463146FEF78BFD98B1059B8BB1B9F1000F40F3E6800BF1FF330893314600226C4B2846FEF709FB0134CDE902014E4602E0059ECDF820B020467E
:402FC000FEF798FADDE90223FEF7FAFA634B0022FEF744F9A1F1507304460C931D46D6B9DDE9020100225E4BFEF736F922460C9BCDE90201FEF774FD002840F03F820C99A0
:40300000224601F10043DDE90201FEF74BFD002840F02B82A8E00A9A4C4B711E002A49D003EBC103D3E9002300204E49FEF7F2FB22462B46FEF710F9CDE90C01069CDDE927
:403040000201FEF757FD0546FEF754FA02460B46DDE90201FEF700F9DDE90C23303504F8015BCDE90201FEF71DFD002840F01D83DDE9022300203749FEF7EEF8DDE90C2359
:40308000FEF710FD002840F0D180069BE31AB3426ADADDE90C0100222F4BFEF791FA0022CDE90C01DDE902012B4BFEF789FACDE90201C4E703EBC1012246D1E900012B465B
:4030C000FEF77EFA069BCDE90C011D469C19DDE90201FEF70FFD0646FEF70CFA02460B46DDE90201FEF7B8F8303605F8016BAC42CDE902014FF0000222D11A4BDDE90C01ED
:40310000FEF7ACF802460B46DDE90201FEF7E8FC002840F08B80DDE90C2300201149FEF79BF802460B46DDE90201FEF7BBFCD8B114F8013C621E302B40F0B7821446F7E705
:40314000054BFEF73DFACDE90201C0E778420000504300000000F03F0000244000001C40000014400000E03FDDE90E34CDE90234139B002B7CDBBBF10E0F79DCAB4B03EB9E
:40318000CB03D3E900671F9B002B14DA059B002B11DC40F06C810022A54B30463946FEF70FFADDE90223FEF791FC059D2E46002840F05F8165E1069CDDE9028932463B4684
:4031C00040464946FEF726FBFEF794FC0546FEF791F932463B46FEF7F3F90B46024649464046FEF739F805F1300E069B04F801EBC3EB040E059B73452DD102460B46FEF746
:403200002DF88046894602460B4630463946FEF749FC78B942464B4630463946FEF738FC002800F04482EB0704D440E2DDF820B000E01C4614F8012C631E392A07D1069A5E
:403240009A42F6D1069930220BF1010B0A701A7801321A702BE20022764BFEF7B1F90022002380468946FEF713FC0028A6D01EE20A9A002A2BD01E9A012A0ADC119A12B1DE
:4032800003F2334302E0129BC3F136033D46444613E0059B5D1EAF42BFBF0B9BEA1B9B180B93059BB6BF2F467D1B0025002BA7BF4446059BC3EB08040023079A01211A44A1
:4032C00050469844079200F001FB064602E03D4644460A9E5CB1079B002B08DDA342A8BF2346079AC3EB0808E41AD31A0793002F1DDD0A9BABB18DB131462A46504600F0C7
:403300007FFB049A01460646504600F0E8FA04990890504600F03BFA089B04937A1B06D000E03A460499504600F06AFB04900121504600F0CBFA0B9B05465BB31A46014656
:40334000504600F05DFB1E9B0546012B18DC029B83B9039BC3F3130373B9039B23F000473F0D3F054FB1079B08F1010801330793012702E0002700E0029F0B9B73B100E086
:4033800000272B6905EB8303186900F052FAC0F1200004E01E9B012BD9DD0B9F0120079B184410F01F0008D0C0F12003042B02DDC0F11C0002E006D018461C30079B804498
:4033C000034404440793B8F1000F05DD42460499504600F063FB0490079B002B05DD29461A46504600F05AFB0546109B23B32946049800F0A4FB00281EDA00230A220499A2
:40340000504600F0DBF90A9B0BF1FF3B0490002B00F05F81314600230A22504600F0CEF9B9F1000F06463FDC3BE000BF784200000000144000002440059B002B2BDC1E9BBE
:40344000022B28DDDDF81490B9F1000F11D129464B460522504600F0B1F901460546049800F06DFB00280CDC03E0354600E000252E461F9B069C6FEA030B09E03546DDF846
:4034800020B0069B069A5C1C312313700BF1010B05960026F7E00A9BDDF8149023B9069CB2E01E9B022BCFDC002C05DD31462246504600F0F3FA06469FB17168504600F0F2
:4034C00031F90446326906F10C01023292000C30FEF738FE01222146504600F0DFFA059000E00596029B069F03F00103079329460498FFF7D7FA3146044600F13008049868
:4035000000F01DFB059A02902946504600F033FBC36802463BB901460A90049800F00FFB0A9A034600E00123114650460A9300F02EF90A9B53B91E9A42B9079A32B9B8F126
:40354000390F2AD0029B002B1CDC1DE0029A002A04DB1BD11E9ACAB9079ABAB9002B13DD01220499504600F099FA2946049000F0E6FA002803DC07D118F0010F04D0B8F131
:40358000390F0AD004F131087C1C0CE0002B07F101040BDDB8F1390F03D139233B70013756E008F1010887F800806CE0069B2746E31A4B4504F8018C3BD000230A22049985
:4035C000504600F0FBF8059B04909E424FF00A024FF000033146504604D100F0EFF80646059084E700F0EAF8002306460A220599504600F0E3F8059079E700230A2204995F
:40360000504600F0DBF8049029460498FFF74AFA069B00F1300804F8018BE31A4B45ECDB069B0596B9F1010FACBF4B4401331F46002601220499504600F030FA2946049090
:4036400000F07DFA002803DC15D118F0010F12D03C4614F8013C621E392B09D1069B934204D10BF1010B3123069A02E01446F0E70133137007E03C4614F8013C621E302BD5
:4036800001D11446F8E72946504600F080F8059B6BB12EB19E4203D03146504600F077F80599504600F073F801E0DDF820B00499504600F06CF80023209A23700BF10103CC
:4036C0001360229B1BB11C6001E008480AE0069808E0B9F1000F3FF7E2AE1E9B022B7FF7DEAEB1E615B0BDE8F08F00BF3C420000004870475081FF1F024B0146186800F09B
:4037000041BB00BF4C81FF1F10B5C9B202449042034605D01C7801308C42F8D1184610BD002010BD70B5456A04460E463DB91020FFF7E2FF6062456085600560C560656AE5
:40374000EB6843B1636ADB6853F8260078B1026843F8262017E021220421204600F0B8FA636AE860DB68002BECD1002070BD012101FA06F56A1D9200204600F0A9FA002827
:40378000F3D04660856000230361C36070BD70B5446A06460D463CB91020FFF7ADFF7062446084600460C4603DB1736A6A68DB6853F82210296043F8225070BD2DE9F041C2
:4037C00006460C460D691F4601F1140E0023DEF80000013381B202FB0171000C0F0C02FB007089B201EB00419D424FEA10474EF8041BECDCD7B1A3689D4212DB6168304637
:403800000131FFF78FFF8046226904F10C01023292000C30FEF796FC21463046FFF7B7FF444604EB850301355F6125612046BDE8F081030C1B0413B90004102300E0002340
:4038400010F07F4F04BF0002083310F0704F04BF0001043310F0404F04BF80000233002803DB420003D5581C70471846704720207047036813F007020BD0D90722D49A0799
:403880004BBF5B089B08036003604CBF01200220704799B209B91B0C102213F0FF0F04BF1B0A0832190704BF1B090432990704BF9B080232D90702D45B0805D00132036099
:4038C00010467047002070472020704710B50C460121FFF727FF01224461026110BD2DE9F74F14460A69236988469A42BEBF0B46A0461C46D8F81070D4F81090D8F8083067
:40390000D8F8041007EB09069E42C8BF0131FFF709FF00F114052B4605EB860C0022634502D243F8042BFAE704F1140208F1140102EB890301EB87070093009B0192934283
:4039400057D9B2F800B0BBF1000F23D08946AE464FF0000859F8044BBEF800A0A3B20BFB03A34FEA144ADEF8004043444FEA14480BFB0A84F24604EB13449BB243EA044372
:403980004F454FEA14484AF8043B01D9D646E1E7CEF80480019B0432B3F802A0BAF1000F21D02C4689462B684FF00008B9F800E0B4F802B09BB20AFB0EBEA346F04443EA19
:4039C00008434BF8043B59F8043BB4F804E01B0C0AFB03E34F4503EB18434FEA134801D95C46E3E763600435A7E75CF8043D13B9013E002EF9DC066103B0BDE8F08F0000A6
:403A00002DE9F843154612F0030206460F4607D0214C013A002354F82220FFF7CFFE0746AD1036D0746A3CB91020FFF765FE7062446084600460C460D6F82480D8F8084067
:403A40004CB940F271213046FFF740FF04460023C8F8080003604FF00008EB070AD5394622463046FFF73BFF814639463046FFF78EFE4F466D100CD0206808B10446ECE70B
:403A8000224621463046FFF72AFF2060C0F80080F4E73846BDE8F883404300002DE9F0470C460746914626694FEA621A56444968A368751CAB4202DA01315B00FAE738464B
:403AC000FFF730FE002380461A4600F11401534503DA41F823200133F9E72AEAEA73206901EB830319F01F0904F1140101EB800E14D0C9F1200C002208689A4600FA09F0FE
:403B0000024343F8042B51F8042B8E4522FA0CF2F2D8CAF8042042B1B51C06E0043B51F8042B8E4543F8042FF9D8013D3846C8F810502146FFF72BFE4046BDE8F0870369DE
:403B40000A6910B59B1A11D192001430143183180A4453F8044D52F8041D8C4202D007D3012010BD9842F4D3002010BD184610BD4FF0FF3010BD2DE9F8430C4607461146C8
:403B800020461546FFF7DBFF061E08D131463846FFF7C8FD012303614661BDE8F883BCBF23462C4638466168BABF1D4601260026FFF7B8FD2B69C660266905F1140904F1B6
:403BC000140101EB860709EB830800F114054FF0000C51F8042B59F8044B93B29C44A3B2240CC3EB0C03C4EB124202EB23429BB24FEA224CC84543EA02428E4645F8042BDD
:403C0000E7D8BE450ED25EF8041B8AB26244131403EB114392B242EA03424FEA234C45F8042BEEE755F8043D0BB9013EFAE70661BDE8F8832DE9F3411C4601219046089E41
:403C4000099DFFF76FFDC4F31302C4F30A5407460CB142F480120192B8F1000F19D002A840F8088DFFF705FE009B48B1019AC0F1200102FA01F10B43C2407B61019200E057
:403C80007B61019B002B14BF02210121BB61396107E001A8FFF7EDFD019B01217B613961203034B1A4F2334404443460C0F1350009E0A0F2324007EB810330601869FFF781
:403CC000B8FDC0EB41102860384602B0BDE8F08138B502FB01F4214600F054F8054618B122460021FEF739FA284638BD38B50546002944D051F8043C0C1F002BB8BFE418D4
:403D000000F017FA1E4A1368114613B96360146030E0A3420DD92268A018834201BF18685B681218226063600C6023E0A24203D813465A68002AF9D118681918A1420BD144
:403D40002168014458188242196013D110685268014419605A600DE002D90C232B6009E021686018824201BF106852680918216062605C602846BDE8384000F0DBB938BDF4
:403D8000E481FF1F70B5CD1C25F0030508350C2D38BF0C25002D064601DBA94202D90C23336046E000F0C5F9234B1C681A462146A1B10B685B1B0ED40B2B03D90B60CC18CF
:403DC000CD501EE08C420BBF63684B681360636018BF0C4615E00C464968E9E7174C23681BB9304600F07AF920602946304600F075F9431C18D0C41C24F00304A0420DD10B
:403E00002560304600F096F904F10B00231D20F00700C31A0ED05A42E25070BD211A304600F05CF90130EBD10C233360304600F081F9002070BD00BFE481FF1FE081FF1F68
:403E40002DE9F0478E6882469E420C46914698463ED88A8912F4906F3AD02568096902236F1A656905EB450595FBF3F57B1C43449D4238BF1D4653050FD52946FFF782FF72
:403E8000064698B13A462169FEF75CF9A38923F4906343F08003A38113E02A4600F04BF9064670B921695046FFF720FF0C23CAF80030A3894FF0FF3043F04003A381BDE8CE
:403EC000F08726613E44266046466561ED1BA560464528BF464649463246206800F00EF9A36800209B1BA36023681E442660BDE8F08700002DE9F04F9DB003938B89804654
:403F00001C060D4616460DD50B695BB94021FFF739FF2860286118B90C23C8F80030CDE040236B610023099320238DF82930DFF89CB130238DF82A3037463C4614F8013B5D
:403F40001BB9B7EB060910D003E0252BF9D02746F3E74B46324629464046FFF771FF013000F0A780099B4B4409933B78002B00F0A08000234FF0FF3204930793059206933C
:403F80008DF853301A930126052221784E48FFF7BBFB671C049B38B14B4A3C46801A06FA00F018430490EFE7D90644BF20228DF853201A0744BF2B228DF8532022782A2A3F
:403FC00003D0079A00210A200BE0039A111D12680391002A10DA524243F00200079204900BE027463B780134303B092B03D800FB02320121F5E701B107923B782E2B1ED107
:404000007B782A2B0AD1039B02371A1D1B680392002BB8BF4FF0FF33059310E0002319460593781C0A2407463A780130303A092A03D804FB01210123F5E703B10591032288
:4040400039782248FFF760FB40B14023CBEB000003FA00F0049B013718430490397806221B487E1C8DF82810FFF74EFB88B1194B33B9039B073323F007030833039314E002
:4040800003AB00932A46144B04A94046FEF7FEF807E003AB00932A460F4B04A94046FEF7AFFBB0F1FF3F824603D0099B5344099342E7AB895B0601D4099801E04FF0FF303A
:4040C0001DB0BDE8F08F00BF784300007E430000824300008D220000413E000038B5064C0023054608462360FCF76EFA431C02D1236803B12B6038BDEC81FF1F884210B5BD
:4041000001EB020301D8421E0BE09842FBD28118D21AD34204D013F8014D01F8014DF8E710BD994204D011F8014B02F8014FF8E710BD70477047F8B5074615460E4621B91E
:404140001146BDE8F840FFF71DBE1AB9FFF7CEFD2846F8BD00F015F885420ED929463846FFF710FE044650B131462A46FDF7EAFF31463846FFF7BAFD01E03046F8BD2046C4
:40418000F8BD51F8040C0028BEBF091851F8043CC0180438704700004FEA410C7FEA6C5C02D150EA013C0AD14FEA430C7FEA6C5C02D152EA033C02D14FF0000070474FF0EC
:4041C00001007047000000002564090025640A00035B00402443004040000000004F00400C00405100401000605100401000C05100401000F0510040100000000140800A23
:40420000000B0140000500140140000800400140000A004C014000020050014020000000800A01400408004880004300494E4600696E66004E414E006E616E00300030315E
:404240003233343536373839414243444546003031323334353637383961626364656600496E66696E697479004E614E00504F534958002E00000000000000000000F03F64
:40428000000000000000244000000000000059400000000000408F40000000000088C34000000000006AF8400000000080842E4100000000D01263410000000084D7974199
:4042C0000000000065CDCD41000000205FA00242000000E876483742000000A2941A6D42000040E59C30A2420000901EC4BCD64200003426F56B0C430080E03779C3414382
:4043000000A0D8855734764300C84E676DC1AB43003D9160E458E143408CB5781DAF154450EFE2D6E41A4B4492D54D06CFF08044F64AE1C7022DB544B49DD9794378EA449A
:4043400005000000190000007D000000000000000080E03779C34143176E05B5B5B89346F5F93FE9034F384D321D30F94877825A3CBF737FDD4F1575232D302B2000686C84
:404380004C0065666745464700000000F8B500BFF8BC08BC9E4670474D00000045060000F8B500BFF8BC08BC9E46704729000000C0430000C880FF1FC0000000680000005D
:4043C00000000000C1CA213E3D0A573EF081FF1F0000E02EC05D00001800000000366E0101FF00000000000000000000000000000000000000000000000000000000000080
:40440000000000002A420000000000000000000000000000000000000000000000000000000000000000000000000000000000000000000000000000000000000000000010
:4044400000000000EC80FF1F734200007D4300007D4300007D4300007D4300007D4300007D4300007D4300007D4300007D430000FFFFFFFFFFFFFFFFFFFFFFFFFFFF00004B
:4044800000000000000000000000000000000000000000000000000000000000000000000000000000000000000000000000000000000000000000000000000000000000FC
:4044C00000000000000000000000000000000000000000000000000000000000000000000000000000000000000000000000000000000000000000000000000000000000BC
:40450000000000000000000000000000000000000000000000000000000000000000000000000000000000000000000000000000000000000000000000000000000000007B
:40454000000000000000000000000000000000000000000000000000000000000000000000000000000000000000000000000000000000000000000000000000000000003B
:020000040003F7
:0200000480007A
:40000000024F004001520040046400400265004001050140500801404A0901402C0A0140460B0140630C01403C0D01404F0E0140360F014001150140011701405818014011
:4000400051190140511A01404F1B014002400140034101400642014002430140024401400445014007460140024701400848014002490140074C0140084D01400550014061
:400080000151014001100A362904886F890F8E6F8F0F890D8A0FE00200CF023003300501060F0702089E09010A600B020D20110718731B071C301EC920FD21042202249432
:4000C0002660270829072F04330F34FF352037103E103F10540F580459045B045C405D405F058031828683018A8C8E409031920E94AC96039C40A208A613AA40B040B20FED
:40010000B430B68AB701B820BA88BE11C002C540C9FFCA07CBFFCC40CD20CEF0CF05D008D40FD804D904DA04DB04DC42DD42DF01E040E1A8E240E3200001012002010410F0
:40014000051106840750080109400A100C100E010F0110A01208150C1701180419C01A521F1022802408254026082710280129802C042E812F18371139023C103DC43E02AE
:40018000400448E0511058045A605B015C805D105E0A661878107B087F088C84910A9220930195C0978099019A3A9C709E059F11A301A508A680A720C07BC2CDC43ECAF051
:4001C000CCA0CEF1D004D6FFD860DE20010103020501070609100D081102130115101D011F02230829082D10310433103508370339083B803F144013410249FF4AFF4BFFDA
:400200004DA04F01501859045A045C405D045F016040628064406540668068406A806C406D206E800518062007400A020B010C100D080E400F0114011508160417011D11D4
:400240001E411F082101221823012410262428082A412F04310432813624382039423B043C023D28400A42014318440247104D0A4E044F02561A5801590277407E047F08D2
:4002800090209108930C94109580978099049A409C60A001A114A628A720B402B712C070C2F0C4F0CA2DCC6BCEEFD03ED220E0020001010602020503060709200A040B10D3
:4002C0000C070D100F201010114012201424154016101A401B081E0820102110222023202410251026202720280129062A022C072D053040310832303307340F353037407D
:4003000039883A083B20580459045C335F01809E81018260830284FD85028602870188CF8A308D018F0A943096C99A0F9D019F06A473A894AA60AF10B104B303B510B6FF50
:40034000B708BB08BE40C036C102C9FFCAFFCBFFCDA0CF01D018D804D904DA04DC40DD03DF01E040E280E440E540E680E840EA80EC40ED20EE8000120220035C04140580B7
:40038000074009280B100D0A0E0511281204146016051A011C041D281E401F1421052240230424202516270128022D802E042F6A324034203506398A3C023D283E40400470
:4003C00042104A0882218D048E0192109420973099069A409E049F15A001A609B484C0FEC2F6C4F6CAF8CCE8CEFBD006D20404011102120117031A031C04220C30043101F1
:4004000032013302340236083E053F0440364102454346C2470E481F49FF4AFF4BFF4DAF4E074F0150185280540F580459045A045B045C335D335F05604062806440654078
:40044000668068406A806C406D206E80810484EB861488F793039460968F9A109C9C9E62A30CA43CA502A6C1A701A828AAC1AD03B108B302B4F8B501B60FB704BF54D40FC9
:40048000D804D904DB04DC33DD30DF010004042007180A460E050F10108016041704180419801A921C021E05210222042408250127222D822E082F50310637013D02421828
:4004C000488049044A0851085250534059105A885B025C885E025F2861086210724078088D12C064C2EBC468CAD0CC83CE80D006D204D6FFD806DE02E680E2010101030225
:400500000548073009020E0411781304170419641B181E0121182360253C29012A082D4C2E022F3030023201337C340435023608370139823F11580459045C435F018013C0
:40054000820C8A088B0E8C038E148F01940A950896149A209B029C139E04A615AA20B010B108B304B420B501B60FB702BA80BE11C020C106C5D0C610C702C81AC9FFCAFF60
:40058000CBFFCDA0CF04D018D280D405D804D904DA04DB04DC12DD11DF01E040E2C0E440E540E6C0E8C0EAC0ECC0EEC0000101200202058009200A120C40102814041602EB
:4005C00018011A841D041F62212122842480258826282C102D402E213120320435103608370138203B403D253F024080412145804601480849814B805018588059015A0460
:4006000060206104734078407B02804086028E2191289213930194019580978099409A209B409C709D309E019F01A060A301A508A605A720B110B301C08BC287C4C6CAF0AD
:40064000CCE6CEECD004D204D60BE001E6080030020C07040C10102C1211141C162218091A101E032014244025022D01330234603501361F370438203F1440124105450E0A
:40068000460B47C0482549FF4AFF4BFF4EF04F44500C5401580459045A045B045C425D225F0166C06A406B028101850686808718886C8A028B018C5B8E04911E9437990E90
:4006C0009D0A9E0F9F14A320A408A514A601A70AAC6CAD18AE01AF06B270B301B40FB520B680B71EB808BF04D804D904DC44DF0100810510062007010A150B400E200F0111
:4007000010A0154C174019A01A051C021D101E201F1021402204230825102604270129882D412F103410369037013A083C023D043E204001411049484A204B40508051028E
:40074000520258025A885B20628063018002822089028B288E08900191299290930195C499409A209B409C109D309F01A060A510A606AC04AE80C0E9C2AFC4ACCADACCB066
:40078000CEE2D00CD208D60FE680EA08EC083280CC105104A680D420128087019508A680C410E04095089F017C01DE01034004089401C00C4508850894019B40B404D001B8
:4007C000EA0894019B4027016604820495089F01C820D880E280890495080A010F028001870194019B40C20359408F4099409B40AD40AE01D401E208001C0C1C0E18101E0D
:400800001C1E000200AC015140770000013000CF000000003000080000CC03325CFB0004200004002C00100000003C00305804A1400000003C00400F02F0010008000000A4
:4008400000004400160200000023C04E3BFFFFFF00AF070118008000000000000404040434440001400080004040800040008000402080000000000000000000000000007B
:4008800000000000020000020200020000000000C00B0B000000000003000000000004000004040000000000000707000400000025001801000000000000000000000000FB
:4008C00000000000000000000000000000000000000000000000000000000000000000000000000000000000000000000000000000000000000000000000000000000000F8
:4009000000000000000000000000000000000000000000000000000000000000000000000000000000000000000000000000000000000000000000000000000000000000B7
:400940000000000000000000000000000000000000000000000000000000000000000000000000000000000000000000000000000000000000000000000000000000000077
:400980000000000000000000000000000000000000000000000000000000000000000000000000000000000000000000000000000000000000000000000000000000000037
:0200000490006A
:0400000000004005B7
:0200000490105A
:04000000BC90ACAF55
:0200000490303A
:02000000CDF23F
:0200000490402A
:4000000000000000000000000000000000000000000000000000000000000000000000000000000000000000000000000000000000000000000000000000000000000000C0
:400040000000000000000000000000000000000000000000000000000000000000000000000000000000000000000000000000000000000000000000000000000000000080
:400080000000000000000000000000000000000000000000000000000000000000000000000000000000000000000000000000000000000000000000000000000000000040
:4000C0000000000000000000000000000000000000000000000000000000000000000000000000000000000000000000000000000000000000000000000000000000000000
:0200000490501A
:0C00000000012E12306900012E2EFE5B64
:00000001FF